:020000020000FC
:2000000000400034086008140800683A00000000000000000000000000000000000000003E
:2000080006C00074DEC0001406800074D683CC140008104000081880003FFF06DEFFFC04A0
:20001000DFC00315DF000215DF000204E03FFE150080007410840004E0BFFF15E0BFFE1719
:200018001080012810000B1EE0BFFF1710C00104E0BFFE1711000044E13FFE1501000044CB
:200020002084983A188000150100004400081E80003FF206E03FFE15003FF006DEFFFC0437
:20002800DF000315DF000304E13FFD15E17FFE15E1BFFF15E0FFFE17E0BFFD1718800C2611
:2000300000000806E0BFFE1710C00104E0FFFE15E0FFFD1719000104E13FFD1518C00017F5
:2000380010C00015E0FFFE17E0BFFF1718BFF51E0001883AE037883ADF000017DEC00104FB
:20004000F800283ADEFFFE04DFC00115DF000015D839883A0180007431A3D4040140007495
:2000480029631F04010000742123D404000809C00180007431A0080401400074296008046B
:200050000100007421200804000809C00180007431A31F0401400074296317040100007440
:2000580021231704000809C000086300000881C00001883AE037883ADFC00117DF0000175B
:20006000DEC00204F800283ADEFFFD04DFC00215DF000115DF0001040009883A000824C05E
:200068000001883A00082840000875C0010000742121EF0400088E40D0A0BD17D0E0BE17BF
:20007000D120BF17200D883A180B883A1009883A000803C0E0BFFF1501000044000855805A
:20007800E13FFF1700088F80DEFFFD04DFC00215DF000115DF000104E13FFF15E13FFF1744
:2000800000084F80E037883ADFC00117DF000017DEC00204F800283ADEFFFD04DFC0021571
:20008800DF000115DF000104E13FFF15D1600204E13FFF1700086B80E037883ADFC001175B
:20009000DF000017DEC00204F800283ADEFFFD04DFC00215DF000115DF000104E13FFF15BB
:2000980000088C00008000441001703A0001883AE037883ADFC00117DF000017DEC0020448
:2000A000F800283ADEFFFE04DFC00115DF000015D839883A0100007421231F040008218006
:2000A8000001883AE037883ADFC00117DF000017DEC00204F800283ADEFFFA04DFC005155D
:2000B000DF000415DF000404E13FFD15E17FFE15E1BFFF15E0BFFD1710800017E0BFFC15EE
:2000B800E0BFFC1710C00A04E0BFFD1710800217100F883AE1BFFF17E17FFE171809883A4D
:2000C00000083780E037883ADFC00117DF000017DEC00204F800283ADEFFFA04DFC0051549
:2000C800DF000415DF000404E13FFD15E17FFE15E1BFFF15E0BFFD1710800017E0BFFC15D6
:2000D000E0BFFC1710C00A04E0BFFD1710800217100F883AE1BFFF17E17FFE171809883A35
:2000D80000084640E037883ADFC00117DF000017DEC00204F800283ADEFFF704DF00081522
:2000E000DF000804E13FFC15E17FFD15E1BFFE15E1FFFF15E0BFFC1710800017E0BFF915C5
:2000E800E0BFFD17E0BFF815E0BFFE17E0FFFD171885883AE0BFFA1500001206E0BFF9171E
:2000F00010800037E0BFFB15E0BFFB1710A0000C10000626E0BFF81710C00044E0FFF81523
:2000F800E0FFFB1710C0000500000606E0FFF817E0BFFD171880071EE0BFFF171090000C57
:200100001000061EE0FFF817E0BFFA1718BFEB36000003060001883A000001060001883A7F
:20010800E0FFF817E0BFFD1718800426E0FFF817E0BFFD171885C83A00000606E0BFFF1773
:200110001090000C1000022600BFFD440000010600BFFEC4E037883ADF000017DEC00104F1
:20011800F800283ADEFFF904DF000615DF000604E13FFC15E17FFD15E1BFFE15E1FFFF1566
:20012000E0BFFC1710800017E0BFFA15E0BFFE17E0FFFD171885883AE0BFFB1500000E06EF
:20012800E0BFFA17108001041080003710BFFFEC10000926E0FFFA17E0BFFD1711000044BA
:20013000E13FFD151080000310803FCC1080201C10BFE00418800035E0FFFD17E0BFFB175F
:2001380018BFEF36E0BFFE17E037883ADF000017DEC00104F800283ADEFFFE04DF00011557
:20014000DF000104E13FFF150005883AE037883ADF000017DEC00104F800283ADEFFFE0415
:20014800DFC00115DF000015D839883AD0A0051710000326D0A00517103EE83A0000010653
:20015000D0A0C004E037883ADFC00117DF000017DEC00204F800283ADEFFFB04DFC0041543
:20015800DF000315DF000304E13FFF15E0BFFF171000081601400304E13FFF170008C0004D
:200160001007883A0080007410A334041885883A000001060005883AE0BFFD15E0BFFD1736
:2001680010001926E0BFFD17108000171080041710000626E0BFFD171080001710800417E2
:20017000E13FFD17103EE83A000001060005883AE0BFFE15E13FFF17000883C0E0BFFE1716
:200178001000070E000851C01007883AE0BFFE170085C83A1880001500BFFFC400000706D9
:200180000005883A00000506000851C01007883A008014441880001500BFFFC4E037883ABB
:20018800DFC00117DF000017DEC00204F800283ADEFFFF04DF000015D839883A0001883A42
:20019000E037883ADF000017DEC00104F800283ADEFFFC04DF000315DF000304E13FFD1597
:20019800E17FFE15E1BFFF15E0BFFF17E037883ADF000017DEC00104F800283ADEFFFE04C0
:2001A000DFC00115DF000015D839883AD0A0051710000326D0A00517103EE83A00000106FB
:2001A800D0A0C004E037883ADFC00117DF000017DEC00204F800283ADEFFFA04DFC00515EB
:2001B000DF000415DF000404E13FFE15E17FFF15E0BFFE1710000326E0BFFE17108002175F
:2001B8001000061E000867C01007883A008005841880001500BFFA8400001306E0BFFE172B
:2001C000E0FFFF17E0FFFC15E0BFFD15E0BFFD17E0FFFC1710C00115E0BFFC1710C0001765
:2001C800E0BFFD1710C00015E0BFFC1710800017E0FFFD1710C00115E0BFFC17E0FFFD17A8
:2001D00010C000150005883AE037883ADFC00117DF000017DEC00204F800283ADEFFFD0401
:2001D800DFC00215DF000115DF0001040080007410A31604E0BFFF1500000606E0BFFF1743
:2001E00010800017103EE83AE0BFFF1710BFFF04E0BFFF15E0FFFF170080007410A31704F7
:2001E80018BFF62E0001883AE037883ADFC00117DF000017DEC00204F800283ADEFFFD04D7
:2001F000DFC00215DF000115DF0001040080007410A31604E0BFFF1500000606E0BFFF172B
:2001F80010800017103EE83AE0BFFF1710BFFF04E0BFFF15E0FFFF170080007410A31704DF
:2002000018BFF62E0001883AE037883ADFC00117DF000017DEC00204F800283ADEFFFF04BC
:20020800DF000015D839883A0001883AE037883ADF000017DEC00104F800283ADEFFFC04A3
:20021000DFC00315DF000215DC000115DF000204E13FFE15E0BFFE17108000D01000111EC4
:200218000400007484233404E0BFFE17014003041009883A0008C0008085883A1080020473
:20022000100000150400007484233404E0BFFE17014003041009883A0008C0008085883ADC
:20022800100000150001883AE6FFFF04DFC00217DF000117DC000017DEC00304F800283A45
:20023000DEFFFF04DF000015D839883A000170FA0001883AE037883ADF000017DEC0010467
:20023800F800283A200B883A000F883A000D883A0009883A00089181DEFFFE04000B883A2E
:20024000DC000015DFC001152021883A0008A7008009883A0008C2800080007410A3D20434
:2002480010C00017DEFFF904DC0000151C000C17DD400515DD000415DCC00315DC80021551
:20025000DC400115DFC00615202B883A2823883A3027883A3825883A1029883A8000021EB5
:200258001C000D041C000C158080011700C007C41880110E00800034108000041000021E4A
:2002600000BFFFC40000310601002304000000001021883A103FFA2610000115A0800017DE
:2002680010C00C1780C0001514000C1580002215A8001D2600000606A8001B268080221729
:200270001000091E0080003410800004103FEC260100420400000000103FE9261000401584
:20027800100041158080221581400117010000442947883A18C7883A10C7883A1CC000154E
:200280002148983A11404017290AB03A114040151C80201500C00084A8C0031E10C04117F2
:200288001908B03A110041158080011710C00044108000841085883A1085883A80C00115A0
:2002900080A1883A844000150005883ADFC00617DD400517DD000417DCC00317DC800217B3
:20029800DC400117DC000017DEC00704F800283ADEFFF504DD00051505000074DC80031562
:2002A000DFC00A15DF000915DDC00815DD800715DD400615DCC00415DC400215DC0001153E
:2002A800D90000152825883AA523D204A44000178CC00C178C400C04980045269C0001179E
:2002B0000090003410BFFFC49D40221785BFFFC480A1883A8421883A8421883AAC2F883A6D
:2002B800840002049C21883AB000271690000726A800041EB5BFFFC4BDFFFF04843FFF04ED
:2002C000003FF906B9002017913FFA1E9900011782000017213FFFC4B100021E9D80011597
:2002C8000000010680000015403FF2269F000117A8000526008000441592983AA9404017DC
:2002D000494A703A2800021E403EE83A00000906A90041174908703A2000041EB94000178C
:2002D800D9000017403EE83A00000206B9000017403EE83A99000117E13FCC1E89000017A3
:2002E000993FDC26003FC906008000341080000410000F2699400117990000172800091E99
:2002E8002000082689000015A8000226A809883A000000009809883A000000008CC0001701
:2002F000003FBD069823883A2027883A003FBA06DFC00A17DF000917DDC00817DD80071771
:2002F800DD400617DD000517DCC00417DC800317DC400217DC000117DEC00B04F800283A56
:200300000005883A2000072620C0004C2008D07A180001261145883A294B883A203FFA1E27
:20030800F800283AF800283ADEFFFD04DF000215DF000204E13FFF150001883AE0BFFF17BC
:20031000E0BFFE15E0BFFE1710000226002AF07000000106002AF0B0003FFF067665642F22
:2003180061746A2F61755F67305F7472000000007665642F6C756E2F0000006C00000000EE
:200320000000000000000000000000000000000000000000000000000000000000000000BD
:200328000000000000000000000000000000000000000000000000000000000000000000B5
:200330000000000000000000000000000000000000000000000000000000000000000000AD
:200338000000000000000000000000000000000000000000000000000000000000000000A5
:2003400000000000000000000000000000000000000000000000000000000000000000009D
:20034800000000000000000000000000000000000000000000000000000000000000000095
:2003500000000000000000000000000000000000000000000000000000000000000000008D
:20035800000000000000000000000000000000000000000000000000000000000000000085
:2003600000000000000000000000000000000000000000000000000000000000000000007D
:20036800000000000000000000000000000000000000000000000000000000000000000075
:2003700000000000000000000000000000000000000000000000000000000000000000006D
:20037800000000000000000000000000000000000000000000000000000000000000000065
:2003800000000000000000000000000000000000000000000000000000000000000000005D
:20038800000000000000000000000000000000000000000000000000000000000000000055
:2003900000000000000000000000000000000000000000000000000000000000000000004D
:20039800000000000000000000000000000000000000000000000000000000000000000045
:2003A00000000000000000000000000000000000000000000000000000000000000000003D
:2003A800000000000000000000000000000000000000000000000000000000000000000035
:2003B00000000000000000000000000000000000000000000000000000000000000000002D
:2003B800000000000000000000000000000000000000000000000000000000000000000025
:2003C00000000000000000000000000000000000000000000000000000000000000000001D
:2003C800000000000000000000000000000000000000000000000000000000000000000015
:2003D00000000000000000000000000000000000000000000000000000008C5C0000000025
:2003D80000000000000082B8000083180000000000000000000000000001104000008F3818
:2003E00000008F3800008C7000000000000000000000000000008650000000000000000064
:2003E8000000000000008CA8000000000000000000008CA8000000000000000000008CA859
:2003F0000000000000000000000000000000000000000000000000000000000000000000ED
:2003F8000000000000000000000000000000000000000000000000000000000000000000E5
:200400000000000000000000000000000000000000000000000000000000000000000000DC
:200408000000000000000000000000000000000000000000000000000000000000000000D4
:200410000000000000000000000000000000000000000000000000000000000000000000CC
:200418000000000000000000000000000000000000000000000000000000000000000000C4
:200420000000000000000000000000000000000000000000000000000000000000000000BC
:200428000000000000000000000000000000000000000000000000000000000000000000B4
:200430000000000000000000000000000000000000000000000000000000000000000000AC
:200438000000000000000000000000000000000000000000000000000000000000000000A4
:2004400000000000000000000000000000000000000000000000000000000000000000009C
:20044800000000000000000000008F1000008F1800008F200000000000000000000000009F
:2004500000000000000000000000000000000000000000000000000000000000000000008C
:20045800000000000000000000000000000000000000000000000000000000000000000084
:2004600000000000000000000000000000000000000000000000000000000000000000007C
:20046800000000000000000000000000000000000000000000000000000000000000000074
:2004700000000000000000000000000000000000000000000000000000000000000000006C
:200478000000000000000004000000000001000A000000000002000A000000000000000049
:200480000000000000008F3000008F3000008CA800008CA8FFFFFFFF0000000000008E509C
:2004880000008E500000000000000000000000000000000000000000000000000000000076
:2004900000000000000000000000000000000000000000000000000000000000000000004C
:20049800000000000000000000000000000000000000000000000000000000000000000044
:2004A00000000000000000000000000000000000000000000000000000000000000000003C
:2004A800000000000000000000000000000000000000000000000000000000000000000034
:00000001FF
